:100000000C942A000C94DC040C94DC040C94DC04A6
:100010000C94DC040C94DC040C94DC040C94DC04E0
:100020000C94DC040C94DC040C94DC040C94DC04D0
:100030000C94DC040C94DC040C94DC040C94DC04C0
:100040000C94DC040C94DC040C94DC040C94DC04B0
:100050000C94DC0411241FBECFE5D8E0DEBFCDBF79
:0C0060000E9436000C94C404F894FFCFFA
:10006C000E94B70482E00E94CF040E94D80480E072
:10007C0090E00E94A304811153C090910000913034
:10008C0009F04EC041E060E00E94300440E061E0C5
:10009C0080E00E94300441E062E082E00E94300483
:1000AC0040E063E082E00E94300441E062E081E0E5
:1000BC000E94300440E064E081E00E94300441E0A2
:1000CC0064E083E00E94300440E065E083E00E943D
:1000DC0030042FEF89E698E1215080409040E1F701
:1000EC0000C0000040E060E080E00E94300440E08E
:1000FC0062E081E00E9430042FEF83ED90E3215009
:10010C0080409040E1F700C0000040E062E082E0F7
:10011C000E94300440E064E083E00E943004A5CFEC
:10012C00811153C090910000923009F04EC041E013
:10013C0062E00E94300440E063E080E00E94300402
:10014C0041E064E082E00E94300440E065E082E03F
:10015C000E94300441E062E081E00E94300440E003
:10016C0064E081E00E94300441E064E083E00E949E
:10017C00300440E065E083E00E9430042FEF89E614
:10018C0098E1215080409040E1F700C0000040E031
:10019C0062E080E00E94300440E062E081E00E9476
:1001AC0030042FEF83ED90E3215080409040E1F735
:1001BC0000C0000040E064E082E00E94300440E0B7
:1001CC0064E083E00E94300450CF811171C09091A3
:1001DC000000933009F06CC041E062E00E943004F2
:1001EC0040E063E080E00E94300441E064E082E0A3
:1001FC000E94300440E065E082E00E94300441E05F
:10020C0062E081E00E94300440E064E081E00E9402
:10021C00300441E064E083E00E94300440E065E09B
:10022C0083E00E94300441E064E080E00E943004EE
:10023C0040E065E080E00E94300441E066E082E04E
:10024C000E94300440E067E082E00E9430042FEF0F
:10025C0089E698E1215080409040E1F700C0000011
:10026C0040E062E080E00E94300440E062E081E027
:10027C000E94300440E064E080E00E9430042FEFE4
:10028C0083ED90E3215080409040E1F700C00000E6
:10029C0040E064E082E00E94300440E064E083E0EF
:1002AC000E94300440E066E082E00E943004DDCE23
:1002BC00811171C090910000943009F06CC041E044
:1002CC0066E00E94300440E067E080E00E94300469
:1002DC0041E060E083E00E94300440E061E083E0B4
:1002EC000E94300441E062E081E00E94300440E072
:1002FC0064E081E00E94300441E064E083E00E940D
:10030C00300440E065E083E00E94300441E064E0AA
:10031C0080E00E94300440E065E080E00E94300400
:10032C0041E066E082E00E94300440E067E082E059
:10033C000E9430042FEF89E698E1215080409040D4
:10034C00E1F700C0000040E066E080E00E9430046D
:10035C0040E062E081E00E94300440E064E080E034
:10036C000E9430042FEF83ED90E3215080409040A9
:10037C00E1F700C0000040E060E083E00E94300440
:10038C0040E064E083E00E94300440E066E082E0FC
:10039C000E9430046ACE81118FC09091000095307C
:1003AC0009F08AC041E066E00E94300440E067E05A
:1003BC0080E00E94300441E060E083E00E94300461
:1003CC0040E061E083E00E94300441E062E081E0C3
:1003DC000E94300440E064E081E00E94300441E07F
:1003EC0064E083E00E94300440E065E083E00E941A
:1003FC00300441E064E080E00E94300440E065E0BD
:10040C0080E00E94300441E066E082E00E9430040B
:10041C0040E067E082E00E94300441E062E080E06E
:10042C000E94300440E063E080E00E94300441E030
:10043C0064E082E00E94300440E065E082E00E94CB
:10044C0030042FEF89E698E1215080409040E1F78D
:10045C0000C0000040E066E080E00E94300440E014
:10046C0062E081E00E94300440E064E080E00E94A1
:10047C00300440E062E080E00E9430042FEF83ED16
:10048C0090E3215080409040E1F700C0000040E034
:10049C0060E083E00E94300440E064E083E00E946E
:1004AC00300440E066E082E00E94300440E064E00A
:1004BC0082E00E943004D9CD81118FC09091000050
:1004CC00963009F08AC041E066E00E94300440E0BA
:1004DC0067E080E00E94300441E060E083E00E942D
:1004EC00300440E061E083E00E94300441E062E0CF
:1004FC0081E00E94300440E064E081E00E9430041E
:10050C0041E064E083E00E94300440E065E083E079
:10051C000E94300441E064E080E00E94300440E03E
:10052C0065E080E00E94300441E066E082E00E94D9
:10053C00300440E067E082E00E94300441E062E079
:10054C0080E00E94300440E063E080E00E943004D0
:10055C0041E064E082E00E94300440E065E082E02B
:10056C000E9430042FEF89E698E1215080409040A2
:10057C00E1F700C0000040E066E080E00E9430043B
:10058C0040E062E081E00E94300440E064E080E002
:10059C000E94300440E062E080E00E9430042FEFC3
:1005AC0083ED90E3215080409040E1F700C00000C3
:1005BC0040E060E083E00E94300440E064E083E0CF
:1005CC000E94300440E066E082E00E94300440E08B
:1005DC0064E082E00E94300448CD811154C09091B7
:1005EC000000973009F04FC041E060E081E00E94CC
:1005FC00300440E061E081E00E94300441E062E0C0
:10060C0083E00E94300440E063E083E00E94300409
:10061C0041E062E081E00E94300440E064E081E06F
:10062C000E94300441E064E083E00E94300440E02A
:10063C0065E083E00E9430042FEF89E698E12150B9
:10064C0080409040E1F700C0000040E060E081E0B5
:10065C000E94300440E062E081E00E9430042FEF01
:10066C0083ED90E3215080409040E1F700C0000002
:10067C0040E062E083E00E94300440E064E083E00C
:10068C000E943004F2CC811171C09091000098301E
:10069C0009F06CC041E060E00E94300440E061E091
:1006AC0080E00E94300441E062E082E00E9430046D
:1006BC0040E063E082E00E94300441E062E081E0CF
:1006CC000E94300440E064E081E00E94300441E08C
:1006DC0064E083E00E94300440E065E083E00E9427
:1006EC00300441E064E080E00E94300440E065E0CA
:1006FC0080E00E94300441E066E082E00E94300419
:10070C0040E067E082E00E9430042FEF89E698E138
:10071C00215080409040E1F700C0000040E060E0D4
:10072C0080E00E94300440E062E081E00E943004EE
:10073C0040E064E080E00E9430042FEF83ED90E312
:10074C00215080409040E1F700C0000040E062E0A2
:10075C0082E00E94300440E064E083E00E943004B8
:10076C0040E066E082E00E9430047FCC81117DCCB9
:10077C0080910000893009F078CC41E062E080E0A3
:10078C000E94300440E063E080E00E94300441E0CD
:10079C0064E082E00E94300440E065E082E00E9468
:1007AC00300441E062E081E00E94300440E064E00B
:1007BC0081E00E94300441E064E083E00E94300458
:1007CC0040E065E083E00E94300441E064E080E0BA
:1007DC000E94300440E065E080E00E94300441E07B
:1007EC0066E082E00E94300440E067E082E00E9414
:1007FC0030042FEF89E698E1215080409040E1F7DA
:10080C0000C0000040E062E080E00E94300440E064
:10081C0062E081E00E94300440E064E080E00E94ED
:10082C0030042FEF83ED90E3215080409040E1F7AE
:10083C0000C0000040E064E082E00E94300440E030
:10084C0064E083E00E94300440E066E082E00E94B5
:04085C0030040BCC8D
:10086000683008F06FC0411138C0813091F028F035
:100870008230D9F0833029F108952BB381E090E0E4
:1008800002C0880F991F6A95E2F7809582238BBB7F
:10089000089528B381E090E002C0880F991F6A95FF
:1008A000E2F78095822388BB089525B381E090E02C
:1008B00002C0880F991F6A95E2F78095822385BB55
:1008C000089522B381E090E002C0880F991F6A95D5
:1008D000E2F78095822382BB0895413099F58130FB
:1008E00089F028F08230C9F0833011F108952BB3DC
:1008F00081E090E002C0880F991F6A95E2F7822B91
:100900008BBB089528B381E090E002C0880F991F47
:100910006A95E2F7822B88BB089525B381E090E0C9
:1009200002C0880F991F6A95E2F7822B85BB089554
:1009300022B381E090E002C0880F991F6A95E2F728
:06094000822B82BB08952A
:10094600FC0196B7906496BF96B7906896BF06B6B8
:1009560007FEFDCF91B1987F903821F483B1808353
:0809660080E0089586E0089589
:10096E008FEF8ABB8FE087BB8CEF84BB8FE381BB9D
:0A097E001BBA18BA15BA12BA089590
:10098800EC010E94E1040E94E004CE010E94E2040E
:06099800CE010E94DE0406
:10099E00880F82B986B7846086BF86B7806486BFAB
:0209AE000895AA
:0809B00006B607FEFDCF089515
:0409B8000C9400009B
:0409BC000E94340061
:0209C000089598
:0209C200089596
:0209C400089594
:00000001FF
