:100000000C9436000C94F40A0C94F40A0C94F40A40
:100010000C94F40A0C94F40A0C94E4090C94F40A79
:100020000C94F40A0C94F40A0C94F40A0C94F40A58
:100030000C94F40A0C94F40A0C94F40A0C94F40A48
:100040000C94F40A0C94F40A0C94F40A0C94F40A38
:100050000C94F40AA80102025C02C0022403920379
:1000600000045A04BE0400600074800011241FBE06
:10007000CFE5D8E0DEBFCDBFE6E6F0E040E017C058
:10008000B591A59135912591059107FD0CC09591EC
:100090008591EF01F92FE82F05900D92A217B30774
:1000A000D9F7FE0104C01D92A217B307E1F7EB36A2
:1000B000F40731F70E94CE000C94BD0AF894FFCFEC
:1000C0005761746572204C6576656C203D00202078
:1000D0000054656D7065726174757265203D0048ED
:1000E000656174696E672E2E2E00202020436F6696
:1000F000666565204D616368696E650020205765FF
:100100006C636F6D652020200020466C61766F72F5
:1001100020310050726F63657373696E672E2E2EE7
:100120000020456E6A6F7920596F7572204472699C
:100130006E6B0020466C61766F7220320020466C38
:1001400061766F7220330020466C61766F722034C6
:100150000020466C61766F7220350020466C617617
:100160006F7220360020466C61766F722037002057
:10017000466C61766F7220380020466C61766F7233
:0301800020390023
:100183003132332F3435366B3738392D2A30232B20
:040193000405060752
:04019700000102035E
:10019C0080E00E94580A0E94980A0E9422050E9440
:1001AC000B0A0E94E10A0E94840981E00E94A60ABF
:1001BC000E94ED0A85EB99E00E94DC0A0E94E90A94
:1001CC0041E060E083E00E94B0072AE12A95F1F754
:1001DC0000C040E060E083E00E94B0072091650021
:1001EC0030916600AFE9B6E40E94890A9295829537
:1001FC008F7089279F70892780937300809171007D
:10020C00811115C060E00E94320760EC70E080E064
:10021C000E94270A6EE080E00E94320780917300F2
:10022C000E94FD086EEC70E080E00E94270A80E0DE
:10023C000E94C80A0E94E50A0E94B20A90936200CA
:10024C00809361009C01A8E8B3E10E94890A9B019C
:10025C00AC01012E1AE056954795379527951A95BE
:10026C00D1F7102D3093640020936300ADECBCECFF
:10027C000E94890A96958795969587959695879568
:10028C008093720080917300863401F581E0809335
:10029C00710080917000811119C060E00E943207DA
:1002AC0061ED70E080E00E94270A6EE080E00E9421
:1002BC003207809172000E94FD0865E082E00E9486
:1002CC0032076FED70E080E00E94270A8091720087
:1002DC008A35C1F481E08093700080916F008111A8
:1002EC0011C060E00E9432076AEE70E080E00E946C
:1002FC00270A65E082E00E9432076CEF70E080E034
:10030C000E94270A80E690E00E9499068091600086
:10031C008F3F09F455CF0E94690A80936E0082E0EA
:10032C000E94420A80936E00E09160004E2F50E0D4
:10033C00FA01F197E930F10508F042CFE65DFF4F85
:10034C000C94D60A91E090936F00811105C081E066
:10035C000E947A0A80936E0080916E00811149C0D0
:10036C0081E00E94230860E080E00E94320769E08F
:10037C0071E080E00E94270A65E082E00E9432076B
:10038C0063E171E080E00E94270A41E061E083E0D4
:10039C000E94B00741E067E083E00E94B0078FEF56
:1003AC009DE329E4815090402040E1F700C000001B
:1003BC0040E061E083E00E94B00740E067E083E04A
:1003CC000E94B00781E00E94230860E080E00E9458
:1003DC00320761E271E080E00E94270A8FEF99E614
:1003EC0028E1815090402040E1F700C000001092BD
:1003FC006F000E94CF0AE4CE91E090936F008111C0
:10040C0005C082E00E947A0A80936E0080916E0093
:10041C00811149C081E00E94230860E080E00E94C5
:10042C00320763E371E080E00E94270A65E082E016
:10043C000E94320763E171E080E00E94270A41E0EC
:10044C0062E083E00E94B00741E067E083E00E9435
:10045C00B0078FEF9DE329E4815090402040E1F7F5
:10046C0000C0000040E062E083E00E94B00740E082
:10047C0067E083E00E94B00781E00E94230860E0FF
:10048C0080E00E94320761E271E080E00E94270A5E
:10049C008FEF99E628E1815090402040E1F700C0B1
:1004AC00000010926F000E94CF0A8ACE91E09093C8
:1004BC006F00811105C083E00E947A0A80936E0060
:1004CC0080916E00811153C081E00E94230860E08E
:1004DC0080E00E9432076DE371E080E00E94270A01
:1004EC0065E082E00E94320763E171E080E00E94E7
:1004FC00270A41E062E083E00E94B00741E063E03C
:10050C0083E00E94B00741E067E083E00E94B007FF
:10051C008FEF9DE329E4815090402040E1F700C02B
:10052C00000040E062E083E00E94B00740E063E03E
:10053C0083E00E94B00740E067E083E00E94B007D0
:10054C0081E00E94230860E080E00E94320761E2B3
:10055C0071E080E00E94270A8FEF99E628E1815034
:10056C0090402040E1F700C0000010926F000E9404
:10057C00CF0A26CE91E090936F00811105C084E0E4
:10058C000E947A0A80936E0080916E00811153C094
:10059C0081E00E94230860E080E00E94320767E45B
:1005AC0071E080E00E94270A65E082E00E94320739
:1005BC0063E171E080E00E94270A41E063E083E0A0
:1005CC000E94B00741E064E083E00E94B00741E084
:1005DC0067E083E00E94B0078FEF9DE329E4815030
:1005EC0090402040E1F700C0000040E063E083E071
:1005FC000E94B00740E064E083E00E94B00740E056
:10060C0067E083E00E94B00781E00E94230860E06D
:10061C0080E00E94320761E271E080E00E94270ACC
:10062C008FEF99E628E1815090402040E1F700C01F
:10063C00000010926F000E94CF0AC2CD91E09093FF
:10064C006F00811105C085E00E947A0A80936E00CC
:10065C0080916E0081115DC081E00E94230860E0F2
:10066C0080E00E94320761E571E080E00E94270A79
:10067C0065E082E00E94320763E171E080E00E9455
:10068C00270A41E062E083E00E94B00741E063E0AA
:10069C0083E00E94B00741E064E083E00E94B00771
:1006AC0041E067E083E00E94B0078FEF9DE329E40F
:1006BC00815090402040E1F700C0000040E062E033
:1006CC0083E00E94B00740E063E083E00E94B00743
:1006DC0040E064E083E00E94B00740E067E083E024
:1006EC000E94B00781E00E94230860E080E00E9435
:1006FC00320761E271E080E00E94270A8FEF99E6F1
:10070C0028E1815090402040E1F700C00000109299
:10071C006F000E94CF0A54CD91E090936F0081112D
:10072C0005C086E00E947A0A80936E0080916E006C
:10073C0081115DC081E00E94230860E080E00E948E
:10074C0032076BE571E080E00E94270A65E082E0E9
:10075C000E94320763E171E080E00E94270A41E0C9
:10076C0062E083E00E94B00741E063E083E00E9416
:10077C00B00741E064E083E00E94B00741E067E02D
:10078C0083E00E94B0078FEF9DE329E481509040F5
:10079C002040E1F700C0000040E062E083E00E94EE
:1007AC00B00740E063E083E00E94B00740E064E003
:1007BC0083E00E94B00740E067E083E00E94B0074E
:1007CC0081E00E94230860E080E00E94320761E231
:1007DC0071E080E00E94270A8FEF99E628E18150B2
:1007EC0090402040E1F700C0000010926F000E9482
:1007FC00CF0AE6CC91E090936F00811105C087E0A1
:10080C000E947A0A80936E0080916E00811149C01B
:10081C0081E00E94230860E080E00E94320765E6D8
:10082C0071E080E00E94270A65E082E00E943207B6
:10083C0063E171E080E00E94270A41E065E083E01B
:10084C000E94B00741E067E083E00E94B0078FEFA1
:10085C009DE329E4815090402040E1F700C0000066
:10086C0040E065E083E00E94B00740E067E083E091
:10087C000E94B00781E00E94230860E080E00E94A3
:10088C00320761E271E080E00E94270A8FEF99E65F
:10089C0028E1815090402040E1F700C00000109208
:1008AC006F000E94CF0A8CCC91E090936F00811165
:1008BC0005C088E00E947A0A80936E0080916E00D9
:1008CC00811153C081E00E94230860E080E00E9407
:1008DC0032076FE671E080E00E94270A65E082E053
:1008EC000E94320763E171E080E00E94270A41E038
:1008FC0061E083E00E94B00741E062E083E00E9487
:10090C00B00741E067E083E00E94B0078FEF9DE302
:10091C0029E4815090402040E1F700C0000040E005
:10092C0061E083E00E94B00740E062E083E00E9457
:10093C00B00740E067E083E00E94B00781E00E94CE
:10094C00230860E080E00E94320761E271E080E001
:10095C000E94270A8FEF99E628E1815090402040B1
:10096C00E1F700C0000010926F000E94CF0A28CC63
:10097C0091E090936F00811105C089E00E947A0A82
:10098C0080936E0080916E00811153C081E00E94B3
:10099C00230860E080E00E94320769E771E080E0A4
:1009AC000E94270A65E082E00E94320763E171E051
:1009BC0080E00E94270A41E062E083E00E94B007D9
:1009CC0041E063E083E00E94B00741E067E083E030
:1009DC000E94B0078FEF9DE329E4815090402040A6
:1009EC00E1F700C0000040E062E083E00E94B00745
:1009FC0040E063E083E00E94B00740E067E083E002
:100A0C000E94B00781E00E94230860E080E00E9411
:100A1C00320761E271E080E00E94270A8FEF99E6CD
:100A2C0028E1815090402040E1F700C00000109276
:080A3C006F000E94CF0AC4CB39
:100A440085E49EE10197F1F700C0000040E067E013
:100A540082E00E94B00741E066E082E00E94B007B5
:100A640040E065E082E00E94B00740E064E082E09C
:100A74000E94B00741E062E080E00E94B00783EF8B
:100A840091E00197F1F700C0000040E062E080E0EF
:100A94000E94B00783EF91E00197F1F700C00000D6
:100AA40040E067E082E00E94B00741E066E082E057
:100AB4000E94B00740E065E082E00E94B00740E099
:100AC40064E082E00E94B00741E062E080E00E94BE
:100AD400B00783EF91E00197F1F700C0000040E018
:100AE40062E080E00E94B00783EF91E00197F1F7A4
:100AF40000C0000040E065E082E00E94B00741E0F1
:100B040064E082E00E94B00741E062E080E00E947D
:100B1400B00783EF91E00197F1F700C0000040E0D7
:100B240062E080E00E94B00783EF91E00197F1F763
:100B340000C0000040E067E082E00E94B00740E0AF
:100B440066E082E00E94B00740E065E082E00E9437
:100B5400B00740E064E082E00E94B00741E062E058
:100B640080E00E94B00783EF91E00197F1F700C0A5
:100B7400000040E062E080E00E94B00783EF91E073
:100B84000197F1F700C0000040E067E082E00E94B6
:100B9400B00740E066E082E00E94B00741E065E013
:100BA40082E00E94B00741E064E082E00E94B00766
:100BB40041E062E080E00E94B00783EF91E001979A
:100BC400F1F700C0000040E062E080E00E94B0075E
:100BD40083EF91E00197F1F700C0000040E067E087
:100BE40082E00E94B00740E066E082E00E94B00725
:100BF40040E065E082E00E94B00740E064E082E00B
:100C04000E94B00741E062E080E00E94B00783EFF9
:100C140091E00197F1F700C0000040E062E080E05D
:100C24000E94B00783EF91E00197F1F700C0000044
:100C340041E067E082E00E94B00740E066E082E0C5
:100C44000E94B00740E065E082E00E94B00740E007
:100C540064E082E00E94B00741E062E080E00E942C
:100C6400B00783EF91E00197F1F700C0000040E086
:100C740062E080E00E94B00783EF91E00197F1F712
:100C840000C0000040E067E082E00E94B00740E05E
:100C940066E082E00E94B00740E065E082E00E94E6
:100CA400B00740E064E082E00E94B00741E062E007
:100CB40080E00E94B00783EF91E00197F1F700C054
:100CC400000040E062E080E00E94B00783EF91E022
:100CD4000197F1F700C0000041E067E082E00E9464
:100CE400B00741E066E082E00E94B00741E065E0C1
:100CF40082E00E94B00740E064E082E00E94B00716
:100D040041E062E080E00E94B00783EF91E0019748
:100D1400F1F700C0000040E062E080E00E94B0070C
:0E0D240083EF91E00197F1F700C00000089501
:100D32007F928F929F92AF92BF92CF92DF92EF9269
:100D4200FF920F931F93CF93DF930F92CDB7DEB72E
:100D5200009709F474C06C018FEFF6018083812C37
:100D6200A12C67C0EA2CF12CC7010F2C000CAA0B96
:100D720089569E4FAF4FFC019490A7FD908040E0B2
:100D8200692D81E00E94B007B12C46C00B2D10E006
:100D92009801012E000C440B2D563E4F4F4FF90186
:100DA200749047FD7080AE014F5F5F4F672D81E009
:100DB2000E944109898181112EC08FE39CE901972C
:100DC200F1F700C00000AE014F5F5F4F672D81E079
:100DD2000E94410907C0AE014F5F5F4F672D81E05E
:100DE2000E94410989818823B1F3C701880F991FA5
:100DF200880F991F800F911F092E000CAA0B8D5787
:100E02009E4FAF4FFC018491A7FD8081F601808344
:100E12008824839405C0B394F3E0FB1508F0B6CFA1
:100E220041E0692D81E00E94B00781E0881649F017
:100E3200A39493E09A1508F095CF81E003C080E077
:100E420001C081E00F90DF91CF911F910F91FF9030
:100E5200EF90DF90CF90BF90AF909F908F907F9058
:020E62000895F1
:100E6400CF93811103C0C0E8C60F10C0813019F4BC
:100E7400C0ECC60F0BC0823019F4C4E9C60F06C01B
:100E8400833019F4C4EDC60F01C0C0E040E063E054
:100E940080E00E94B007C4FB442740F967E082E089
:100EA4000E94B007C5FB442740F966E082E00E9437
:100EB400B007C6FB442740F965E082E00E94B00712
:100EC40041E064E082E00E94B00741E062E080E03B
:100ED4000E94B00789EF90E00197F1F700C000008D
:100EE40040E062E080E00E94B00789EF90E0019763
:100EF400F1F700C000004C2F417067E082E00E94CF
:100F0400B007C1FB442740F966E082E00E94B007C5
:100F1400C2FB442740F965E082E00E94B007C3FBAE
:100F2400442740F964E082E00E94B00741E062E0B7
:100F340080E00E94B00789EF90E00197F1F700C0CC
:100F4400000040E062E080E00E94B00789EF90E09A
:0C0F54000197F1F700C00000CF91089554
:100F6000683008F06FC0411138C0813091F028F02E
:100F70008230D9F0833029F108952BB381E090E0DD
:100F800002C0880F991F6A95E2F7809582238BBB78
:100F9000089528B381E090E002C0880F991F6A95F8
:100FA000E2F78095822388BB089525B381E090E025
:100FB00002C0880F991F6A95E2F78095822385BB4E
:100FC000089522B381E090E002C0880F991F6A95CE
:100FD000E2F78095822382BB0895413099F58130F4
:100FE00089F028F08230C9F0833011F108952BB3D5
:100FF00081E090E002C0880F991F6A95E2F7822B8A
:101000008BBB089528B381E090E002C0880F991F40
:101010006A95E2F7822B88BB089525B381E090E0C2
:1010200002C0880F991F6A95E2F7822B85BB08954D
:1010300022B381E090E002C0880F991F6A95E2F721
:06104000822B82BB089523
:10104600CF93C82F40E063E080E00E94B007C4FB66
:10105600442740F967E082E00E94B007C5FB4427B9
:1010660040F966E082E00E94B007C6FB442740F9DB
:1010760065E082E00E94B0074C2F441F4427441FBE
:1010860064E082E00E94B00741E062E080E00E94F6
:10109600B00789EF90E00197F1F700C0000040E04B
:1010A60062E080E00E94B00789EF90E00197F1F7D7
:1010B60000C000004C2F417067E082E00E94B0073C
:1010C600C1FB442740F966E082E00E94B007C2FBFC
:1010D600442740F965E082E00E94B007C3FB44273D
:1010E60040F964E082E00E94B00741E062E080E0FF
:1010F6000E94B00789EF90E00197F1F700C0000069
:1011060040E062E080E00E94B00783EF91E0019743
:0A111600F1F700C00000CF9108952A
:10112000CF93C82F41E063E080E00E94B007C4FB8A
:10113000442740F967E082E00E94B007C5FB4427DE
:1011400040F966E082E00E94B007C6FB442740F900
:1011500065E082E00E94B0074C2F441F4427441FE3
:1011600064E082E00E94B00741E062E080E00E941B
:10117000B00789EF90E00197F1F700C0000040E070
:1011800062E080E00E94B00789EF90E00197F1F7FC
:1011900000C000004C2F417067E082E00E94B00761
:1011A000C1FB442740F966E082E00E94B007C2FB21
:1011B000442740F965E082E00E94B007C3FB442762
:1011C00040F964E082E00E94B00741E062E080E024
:1011D0000E94B00789EF90E00197F1F700C000008E
:1011E00040E062E080E00E94B00789EF90E0019764
:0A11F000F1F700C00000CF91089550
:1011FA001F93CF93DF9300D000D0CDB7DEB7811114
:10120A001FC080E30E9490082FC02DEC829F212DE1
:10121A001124922F969596959695990F392F330FFB
:10122A00330F930F891BE1E0F0E0EC0FFD1FE10F94
:10123A00F11D8083822F8695869586951F5F01C052
:10124A0010E08111E2CF0EC0E12FF0E0319781E08A
:10125A0090E08C0F9D1FE80FF91F8081805D0E942E
:10126A00900811501111F0CF0F900F900F900F901E
:08127A00DF91CF911F9108954F
:1012820041155105D1F16830D0F5813091F028F047
:101292008230D9F0833029F134C089B390E002C0A2
:1012A200959587956A95E2F78170FA01808380E0CF
:1012B200089586B390E002C0959587956A95E2F706
:1012C2008170FA01808380E0089583B390E002C0C8
:1012D200959587956A95E2F78170FA01808380E09F
:1012E200089580B390E002C0959587956A95E2F7DC
:1012F2008170FA01808380E0089581E0089581E0A1
:06130200089580E008954B
:101308008FB58E7F8FBD8FB58D7F8FBD8EB5877F53
:101318008EBD8EB58F7E8EBD8EB5887F8EBD8EB507
:1013280082608EBD1DBC1CBC1BBC1ABC17BC16BC85
:1013380089B78B7F89BF89B78F7E89BF89B7877F38
:1013480089BF89B78F7D89BF88B7846088BF88B710
:10135800886088BF88B7806188BF88B7806288BF87
:021368000895E6
:10136A0080916D008F5F80936D00813051F40E94EF
:10137A00F10A90936A008093690080E00E94A60AAD
:10138A0008958230D9F40E94F10A909368008093FC
:10139A0067001DBC1CBC8091670090916800209179
:1013AA00690030916A00821B930B909366008093C8
:0E13BA00650081E00E94A60A10926D00089561
:1013C8001F920F920FB60F9211242F933F934F93B2
:1013D8005F936F937F938F939F93AF93BF93EF9395
:1013E800FF93E0916B00F0916C000995FF91EF91EC
:1013F800BF91AF919F918F917F916F915F914F9125
:0E1408003F912F910F900FBE0F901F901895DF
:1014160087B1806487B987B18F7787B987B18F7DA8
:1014260087B987B1887F87B987B1836087B986B165
:101436008F7786B986B18F7D86B986B1806186B988
:0814460086B1877F86B9089585
:10144E00CF92DF92EF92CF936B01E82EC0E003C0F4
:10145E000E949008CF5FAE2DC6018C0F911DA11D6D
:10146E00FC018491A7FD80818111F2CFCF91EF9085
:06147E00DF90CF900895FD
:10148400880F83B983B18E7F83B986B78F7D86BF7A
:1014940086B7806886BF06B607FEFDCF81B1887F18
:0C14A400883111F480E0089583E0089581
:1014B00092E090B991B19E7F91B991B19D7F91B920
:1014C000880F82B986B7846086BF86B7806486BF7E
:0214D00008957D
:1014D20086B7806286BF86B7806886BF06B607FE7B
:1014E200FDCF81B1887F883011F480E0089581E0DA
:0214F20008955B
:1014F40083B986B7806886BF06B607FEFDCF81B183
:0E150400887F883211F480E0089585E0089514
:10151200A29FB001B39FC001A39F700D811D112432
:0E152200911DB29F700D811D1124911D089521
:101530008CE08ABB8FE087BB83EF84BB8FEB81BBE2
:0C1540001BBA8FEF88BB15BA12BA0895D1
:10154C00811104C08EB58F7B8EBD0895813019F446
:08155C008EB580648EBD089578
:101564000E94E50A349BFECF24B135B196B1906157
:0615740096B9C9010895BB
:10157A00EC010E94F90A0E94F80ACE010E94FA0AB6
:06158A00CE010E94F60AEA
:0E15900097B1907E97B997B1892B87B90895CE
:0E159E0086B7806186BF86B7806886BF0895D5
:0C15AC00EE0FFF1F0590F491E02D099454
:0A15B80090936C0080936B0008957F
:0815C20086B1806886B9089526
:0815CA0086B1806486B9089522
:0815D2008FB780688FBF0895F8
:0815DA0089B7806289BF089502
:0615E20086B597B50895DF
:0415E8000C9400005F
:0415EC000E945E00FB
:0215F00008955C
:0215F20008955A
:0215F400089558
:00000001FF
